:020000040800F2
:1000000000090020AD0100087D1F00082D1D00081B
:10001000791F0008911700081B2800080000000045
:1000200000000000000000000000000001220008A5
:100030005D1A000800000000912000081523000848
:10004000C7010008C7010008C7010008C701000870
:10005000C7010008C7010008C7010008C701000860
:10006000C7010008C7010008C7010008C701000850
:10007000C7010008C7010008C7010008C701000840
:10008000C7010008C7010008C7010008C701000830
:10009000C7010008C7010008C7010008C701000820
:1000A000C7010008C7010008C7010008C701000810
:1000B000C701000879230008C7010008C70100082C
:1000C000C7010008C7010008C7010008C7010008F0
:1000D000C701000849240008D12400082925000888
:1000E000C7010008C7010008C701000800F002F8B6
:1000F00000F04DF80AA090E8000C82448344AAF175
:100100000107DA4501D100F042F8AFF2090EBAE872
:100110000F0013F0010F18BFFB1A43F0010318473B
:10012000C4380000E4380000103A24BF78C878C111
:10013000FAD8520724BF30C830C144BF04680C60ED
:10014000704700000023002400250026103A28BF35
:1001500078C1FBD8520728BF30C148BF0B60704739
:10016000662903F0CD83642900F08C80732900F0A8
:100170001884002070471FB500F02AFC04000020FE
:10018000002102F099FDE0601FBD10B510BD00F028
:1001900023FD1146FFF7EFFF02F0DCFB00F041FD0D
:1001A00003B4FFF7F2FF03BC02F054FB0948804799
:1001B00009480047FEE7FEE7FEE7FEE7FEE7FEE749
:1001C000FEE7FEE7FEE7FEE704480549054A064B61
:1001D0007047000019230008ED000008000300200C
:1001E00000090020000500200005002070470000E5
:1001F0000FB4044910B503AA029800F0D7FB10BC55
:100200005DF814FB3C0000200FB41CB5074B06AA98
:100210007B4469460090059800F099FB00206946F0
:1002200000F0A8FB1CBC5DF814FB00006107000097
:1002300070B50C460546012A05D02878800600D501
:10024000EA69002302E0012305E05B1C934202D22D
:10025000E05C0028F9D1A869E618C01AA861286AEC
:10026000184428622846AFF3008004E0D5E9012154
:1002700014F8010B9047B442F8D32846AFF300803E
:1002800070BD00002DE9F041064600241068752974
:10029000314616A510D0AFF30080002802DA4042A4
:1002A00013A507E031688A0701D512A502E04907C6
:1002B00004D511A5012401E0AFF3008000210A223A
:1002C00006F1240709E0B0FBF2FCB0FBF2F302FBFD
:1002D0001C00303078541846491C0028F3D12346BE
:1002E0002A463046BDE8F04100F0C4B800000000E6
:1002F0002D0000002B000000200000002DE9F04739
:100300004FF0000A89460446C0F820A02046E16864
:100310008847002876D0252806D0D4E901219047C7
:10032000206A401C2062F1E7E168204600258847EA
:10033000C4F81CA006460027C4F818A02A2E09D02D
:10034000304602F080FA38B304EB8708303EC8F834
:10035000186019E059F8041B204604EB87029161EC
:10036000E1688847012F064618D1E069002820DAA5
:1003700025F020051DE0D8F8180000EB800006EB02
:1003800040003038C8F818002046E1688847064623
:1003900002F059FA0028EED1012F0AD02E2E08D1F2
:1003A0002046E16888477F1C0646022F45F020055D
:1003B000C4DBA069002803DA404245F00105A061D2
:1003C000E80701D025F01005B6B1A6F141001928C3
:1003D00002D8203645F400654A463146204625605D
:1003E0004D46FFF7BDFE58B1012806D0ED1D25F0A2
:1003F000070000F1080989E704E005F1040985E731
:1004000030468AE7206ABDE8F08730B505460B46DE
:100410002A4613F8014B12F8010B08B1A042F8D09C
:100420001CB1002802D06D1CF1E7284630BD10B584
:10043000431C02E010F8011B71B18107FAD14FF0A3
:10044000013202C88C1A8C4314EAC211F9D0C01AC6
:100450000A0603D0C01E10BDC01A10BD0A0401D088
:10046000801E10BD0902FCD0401E10BD70477047B1
:10047000704770472DE9F0470D469946924604466D
:1004800000F124080168880604D5E06921F0100114
:10049000216000E00120A84201DD471B00E00027A9
:1004A000A1697A1902EB0900081AA0612078C00638
:1004B00002D42046AFF30080002608E0D4E90121F1
:1004C0001AF806009047206A401C761C20624E45B0
:1004D000F4DB2078C0060AD52046AFF3008006E0A2
:1004E000D4E9012130209047206A401C2062381E48
:1004F000A7F10107F4DC07E0D4E9012118F80500B1
:100500009047206A401C2062281EA5F10105F3DCFB
:100510002046AFF300802078000602D50220BDE817
:10052000F0870120FBE770472DE9FF4F0C461E4680
:100530004FF0FF378BB0D2E90001DDF860800A9000
:100540008A46C1F30A5505B93D46002108464FF0D9
:100550000000BAF1000F00F4400005DA00EB800063
:100560004FF4400101EA50004FEA9059B9F1010FF0
:1005700000DDB9460A9850EA4A000ED044F6105001
:10058000A5F2FF3545432F14B8F1000F1ED0754278
:10059000291E1EDDC9F100021CE0B8F1010F4FF069
:1005A000000001D0302103E0F24305E02154401C5B
:1005B000B042FBDB30460022002121540B99C1F8E8
:1005C0000880C1E900200FB0BDE8F08FBD1B6D1C95
:1005D000DEE74A4600DA694206A800F083FA06AB75
:1005E00093E8070003AB83E8070050460A9900F040
:1005F00061FB8DE80700A0F500501F3800900398BC
:10060000002D0ADD42F21F014A460844002303A9D7
:100610000390684600F0CAFD09E0A0F500504A4684
:100620001F38002303A90390684600F0D4FD8DE82D
:1006300007000004000C03D04FF0FF30410800E039
:100640001046B8F1000F03D00022009215461EE0BC
:10065000751E05D400F0C0F9303262556D1EF9D513
:10066000B3460122084302D000227F1C04E0207818
:10067000302801D100227F1E002A099784D01DE076
:10068000112D07DA00F0A8F9303262556D1C50EADE
:100690000102F5D1084302D00098C8B10EE0002154
:1006A000681E05E0235C625C63542254401E491CB2
:1006B0008142F7DBAB46A81B401E0990002004F8DE
:1006C0000B000B98099AC0F80880C0E9002B7AE764
:1006D00011264FF0000857E72DE9F04F88460446F1
:1006E000D21D22F0070191B0D1E90001CDE90A0144
:1006F00002F095F802460B98C00F01D02D2007E0BC
:100700002068810701D52B2002E0202101EAC000EA
:10071000032A099001D0072A05DB034641462046FB
:1007200000F0A0F90BE12078800601D5E06900E037
:100730000620B8F1650F814606D0B8F1660F18D0D3
:10074000B8F1670F70D131E00020B9F1110F0090BE
:1007500001DB112301E009F101030AAA01A90CA898
:10076000FFF7E2FEDDE90C70002609F10105834682
:1007700047E001204B4600904FF000470AAA01A92C
:100780000CA8FFF7D1FEDDE90DB00C995D460026FF
:1007900010B909F101000D18B9EB050003D4C0F13F
:1007A000FF3609F10105A5EB09002BE0B9F1010FB6
:1007B00001DA4FF001090020B9F1110F009048460D
:1007C00001DD112300E003460AAA01A90CA8FFF7E6
:1007D000ABFEDDE90C704D4600268346207800070D
:1007E0000AD4AB4500DA5D4601A8012D04DD4119AC
:1007F00011F8011C302907D04F4502DA17F1040F18
:1008000004DA012082460FE06D1EEEE7002F02DCC5
:10081000ED1B3E4403E0781CA84200DD7D1CB81BA4
:1008200000F1010A4FF000472078000703D4AA45E1
:1008300001DB4FF0FF3A0021B7F1004F0DF1430803
:100840008DF8431024D002202B23002F01DA7F42A1
:100850002D230A21021EA0F1010000DC5FB197FBED
:10086000F1FC97FBF1F201FB1C7C17460CF1300CFC
:1008700008F801CDEEE7A8F1010003702188090511
:1008800001D5452100E06521A0F1010800F8011C17
:1008900009980FA9A1EB0807FF1D00B1012041191C
:1008A00001EBEA70A1693844081A401EA061207863
:1008B000C00602D42046AFF30080099828B1D4E9DD
:1008C00001219047206A401C20622078C00622D572
:1008D0002046AFF300801EE0002E04DBB34502DDAE
:1008E00001A8805D00E03020D4E901219047206A12
:1008F000401C2062761CAAF101005FEA000A0AD1BE
:1009000000F066F8C0680168405CD4E901219047B6
:10091000206A401C2062281EA5F10105DCDC07E0EE
:10092000D4E9012118F8010B9047206A401C20628D
:10093000381EA7F10107F3DC2046AFF30080032047
:1009400011B041E601694A1C02610878704700B5A0
:100950008FB0CDE901310021059105497944CDE9F8
:10096000031011466846FFF7C9FC0FB000BD000038
:10097000E5FFFFFF0A6802F8010B0A60704710B537
:10098000436913B1AFF3008001E0FFF751FC012090
:1009900010BD127800F124010A7000224A70012271
:1009A000EDE711684FF0FF32E9E70000074B70B543
:1009B0000D467B44FFF7CBFF0446284600F004F9C0
:1009C00010B14FF0FF3070BD204670BD831F000096
:1009D00000487047C002002030B5B0F10A024FEA6B
:1009E000900E71F100034EEA817EB0EB0E0061EBD8
:1009F00091014FEA101E4EEA017E10EB0E0041EB12
:100A000011114FEA102E4EEA016E10EB0E0041EB71
:100A100011214FEA104E4EEA014E10EB0E0041EB51
:100A20001141401841F100014FEAD00040EA417005
:100A30004FEAD10110EB80054FEA810444EA90743B
:100A400044EB01046D1944EB0404521BA3414FF025
:100A5000000348BF0A3200D530BD401C41F10001FF
:100A600030BD00002DE9F0411F4604460326016811
:100A7000072A01F4006004DB08B116A505E016A5FD
:100A800003E008B115A500E015A521F010002060D5
:100A9000A069C01EA0610FB1401EA0612046AFF347
:100AA00000804FB1D4E9012138469047206A401CAC
:100AB0002062C01C206206E0206AFAE7D4E9012126
:100AC00015F8010B9047761EF8D22046AFF3008050
:100AD000BDE8F0814E414E006E616E00494E460009
:100AE000696E66002DE9F047814616468AB03548A2
:100AF00078440DC88DE80D0032487844801C03AC62
:100B00000DC884E80D0041F69B300844372190FB66
:100B1000F1F290FBF1F5A5F1800501FB12041B3CFD
:100B200002D56442012000E00020DFF898A0804652
:100B30000027FA44AAF1BE0A0EE0E0070AD03246C6
:100B4000684607EB470101230AEB810100F043FBF4
:100B50008DE8070064107F1C002CEED1194F7F44F4
:100B6000AE3F19E0E80715D007EB04100DF1180AA5
:100B700090E80E008AE80E00C068F04201D1981992
:100B800008903246012306A903A800F024FB03AB1A
:100B900083E807006D10641C002DE3D14FF00103C2
:100BA00032466946B8F1000F03A802D000F0FEFA01
:100BB00001E000F010FBC9E90001C9F808200AB003
:100BC000BDE8F0878C2E0000007B00F080007047AD
:100BD00000487047A00200207546FFF7F9FFAE46B7
:100BE00005006946534620F00700854618B020B539
:100BF000FFF7EAFABDE820404FF000064FF000078B
:100C00004FF000084FF0000B21F00701AC46ACE8B4
:100C1000C009ACE8C009ACE8C009ACE8C0098D4621
:100C2000704710B50446AFF300802046BDE8104081
:100C3000FFF7B6BA4FF0013C50F8042B51F8043BD3
:100C40009A4221D1A2EB0C03934313EACC1317D1A0
:100C500050F8042B51F8043B9A4215D1A2EB0C0337
:100C6000934313EACC130BD150F8042B51F8043BF7
:100C70009A4209D1A2EB0C03934313EACC13DBD0C5
:100C80004FF00000704700BFD01A01BAB1FA81F1ED
:100C900001F0180122FA01F0CB40C1F12001DBB2D2
:100CA000C0B2C01A2CFA01F3D11A914311EAC31150
:100CB000E6D170475FEA400C08BF91F0000F4FEAA1
:100CC0008C234FEAC12243EA51514FEA1C5018BF0E
:100CD00000F5F0404FEA300018BF41F000415FEAF4
:100CE0006C5C00F02980BCF1FF3F08BF40F0804001
:100CF0007047130C06BF12044FF0100C4FF0000C9D
:100D0000130E04BF12020CF1080C130F04BF1201E2
:100D10000CF1040C930F04BF92000CF1020CD30FE2
:100D200004BF52000CF1010C11464FF00002A0F17B
:100D30001F00A0EB0C00704711F0004F08BF704778
:100D400031F000413FF4D5AF0B0C06BF09044FF062
:100D5000100C4FF0000C0B0E04BF09020CF1080C34
:100D60000B0F04BF09010CF1040C8B0F04BF8900A9
:100D70000CF1020CCB0F04BF49000CF1010CCCF1BB
:100D80002003A0EB0C0022FA03F302FA0CF241EA72
:100D9000030100F10100704720F07F4C80EA03005E
:100DA00023F07F47ACEB070303F57C5300F00040D2
:100DB00003F1FF032DE980494FEA154B09B44FEACF
:100DC000144325EA0B4E24EA03480FF2042606EBEF
:100DD000132749083E785FEA320203FB0667C7F52E
:100DE000000707FB06F64FEA54374FEAD64606F1EE
:100DF000020607FB066CCCF1005C4FEA1C472CEAAC
:100E0000074C07FB06F40CFB06F504EB15464FEA0E
:100E1000961634BF00204FF000404FEAD13706FB52
:100E200007FC4FEA1C4C0CFB0BF7D21B03FB0CF727
:100E300061EB07010CFB0EF7B0EB074072EB1742BA
:100E40000CFB08F734BFA2EB0742B2EB074261EBA1
:100E500017414FEA0C444FEA910706FB07FC4FEAA3
:100E60001C4C0CFB0BF7B0EBC74072EB573203FB8B
:100E70000CF734BFA2EBC742B2EBC74261EB57316C
:100E80000CFB0EF7B0EBC70072EB57720CFB08F7C8
:100E900034BFA2EBC702B2EBC70261EB5771039FED
:100EA0004FEA816141EA921104EBCC044FEAD13759
:100EB0004FEA826206FB07FC42EA90124FEA80602A
:100EC0004FEA1C4C0CFB0BF7D21B03FB0CF761EB3E
:100ED00007010CFB0EF7B0EB074072EB17420CFB5F
:100EE00008F734BFA2EB0742B2EB074261EB1741B0
:100EF0004FEA8C554FEA910704EB9C2406FB07FC54
:100F00004FEA1C4C0CFB0BF7B0EBC74072EB5732AF
:100F100003FB0CF734BFA2EBC742B2EBC74261EB55
:100F200057310CFB0EF7B0EBC70072EB57720CFB9E
:100F300008F734BFA2EBC702B2EBC70261EB5771EF
:100F400015EB4C254FEA816141EA92114FEA82622A
:100F50004FEAD13742EA901206FB07FC44F1000445
:100F60004FEA80604FEA1C4C0CFB0BF7D21B03FBD3
:100F70000CF761EB07010CFB0EF7B0EB074072EBCF
:100F800017420CFB08F734BFA2EB0742B2EB074253
:100F900061EB174115EB1C154FEA813141EA924193
:100FA0004FEA823242EA90424FEA80304FEA0C76B2
:100FB00044F1000448EA03434EEA0B484FF0000EA8
:100FC000B2EB080C71EB030724BF624639464EEBC7
:100FD0000E0E4FF0000B0018524149414BEB0B0B2A
:100FE000B2EB080C71EB03077BF1000B24BF6246E8
:100FF00039464EEB0E0E4FF0000B0018524149419E
:101000004BEB0B0BB2EB080C71EB03077BF1000B06
:1010100024BF624639464EEB0E0E51EA020718BF56
:1010200046F0010616EB0E7655F1000254F1000170
:1010300003D5BDE88901BDE80088BDE88901BDE8A8
:101040000048B619524141EB0101A3F10103704779
:1010500080807F7E7D7C7B7A7978777676757473F5
:10106000727171706F6E6E6D6C6C6B6A6A696868B4
:10107000676666656464636362616160605F5F5E4A
:101080005E5D5D5C5C5B5B5A5A59595858575756C0
:101090005655555554545353525252515150505025
:1010A0004F4F4F4E4E4D4D4D4C4C4C4B4B4B4A4A77
:1010B0004A494949484848474747474646464545BB
:1010C00045444444444343434342424242414141F4
:1010D000002B9C4630D477002BD01CB54FEA370745
:1010E00003B44FF010004FF01001BAF1000F06D01A
:1010F000BCF1000FDCBF40F0080040F008014FF0E9
:1011000000000FBCBDE810400BF1010BBBF1010F5B
:1011100008BF5FEA170722BF12F1010211F10101B6
:101120004FF0004143F1000300F0004043EA0000AB
:101130007047F9D35708D0E746EA064613F1400F47
:101140004FEA16461FDD13F1200FDFBF16430A4694
:10115000002120335B42BED0C3F1200746EA064699
:1011600002FA07F74FEA164646EA0706C3F12007D8
:1011700022FA03F201FA07F721FA03F14FF0000314
:1011800042EA0702A7E746EA020646EA06464FEAAF
:10119000164646EA0106BCBF46EA0646360C4FF044
:1011A00000034FF000024FF0000194E72DE9804C5E
:1011B0009A46934670B491E8380007C831EA400C6B
:1011C00048BF34EA430C03D5FFF7E6FDFFF780FF85
:1011D000F0BCBDE8008C2DE9804C9A46934670B473
:1011E00091E8380007C810F0804F08BF13F0804F17
:1011F00003D100F005F8FFF76BFFF0BCBDE8008CF1
:1012000020F07F4780EA030023F07F4C07EB0C03BC
:10121000A3F57C5300F00040A3F1FE0392F0000F11
:1012200000F0B38095F0000F00F077802DE90149C0
:101230004FEA11404FEA144621EA004800FB06FC41
:1012400024EA064708FB06F607FB08F800FB07F749
:1012500018EB06484CEB164C4FEA124B18EB0748BC
:101260004FEA15464CEB174022EA0B4E0BFB06FCEF
:1012700025EA06470EFB06F607FB0EFE0BFB07F7FB
:101280001EEB064E4CEB164C4FF000061EEB074EC5
:101290004CEB174B18EB0B0840F1000018EB0E0B52
:1012A00058EB000840F100008F1A4FF000013CBFDE
:1012B000C943661B14BFB5EB040C00213CBFC943F6
:1012C000F61B4FEA17444EEA8E0E27EA04454FEA12
:1012D0001C4704FB07622CEA074C05FB07F70CFBD5
:1012E00005F604FB0CFC16EB074642EB174216EB27
:1012F0000C4642EB1C421BEB060658EB0202414136
:1013000046EA9E0601D5BDE80189B619524141EB76
:101310000101A3F10103BDE801894FEA14454FEA39
:10132000114724EA054621EA074C05FB07F406FBB2
:1013300007F70CFB06F105FB0CFC11EB074144EB36
:1013400017444FEA124711EB0C4144EB1C4422EACC
:10135000074C05FB07F206FB07F70CFB06F605FB3F
:101360000CFC16EB074642EB174216EB0C4642EB21
:101370001C456A1854F1000148BF7047B619524124
:1013800041EB0101A3F10103704795F0000F37D045
:101390004FEA11424FEA144721EA024624EA074C79
:1013A00002FB07F106FB07F70CFB06F402FB0CFC43
:1013B00014EB074441EB17414FEA154714EB0C447B
:1013C00041EB1C4125EA074C02FB07F506FB07F73A
:1013D0000CFB06F602FB0CFC16EB074645EB17452B
:1013E00016EB0C4645EB1C42121951F1000148BFA7
:1013F0007047B619524141EB0101A3F10103704757
:101400004FEA14454FEA114724EA054621EA074C02
:1014100005FB07F106FB07F70CFB06F24FF0000691
:1014200005FB0CFC12EB074241EB174112EB0C429F
:1014300051EB1C4148BF7047921841EB0101A3F1E9
:101440000103704721B1826842F00102826003E02B
:10145000826822F0010282607047000010B50446E5
:101460001248844208D10121401500F04FFE0021AE
:10147000601500F04BFE17E00D48844208D10121B1
:10148000001500F043FE0021201500F03FFE0BE0A8
:101490000848844208D10121C80300F037FE00212A
:1014A0004FF4004000F032FE10BD00000024014067
:1014B00000280140003C0140014600208A6802F0FB
:1014C00004020AB1012000E0002070470146C86C08
:1014D00080B270470246002013680B400BB1012018
:1014E00000E000207047014600208A6802F00802F0
:1014F0000AB1012000E000207047000030B502462C
:101500000020002350680F4C20400D790C6844EAFD
:1015100005242043506090680B4C2040D1E90254D0
:101520002C434D7944EA450420439060D06A20F46E
:1015300070000C7C641EE4B2234340EA0350D06286
:1015400030BD0000FFFEF0FFFDF7F1FFF0B50446EF
:101550000D4600200021092D11DDE068A5F10A06E5
:1015600006EB4607072606FA07F18843A5F10A06A7
:1015700006EB460603FA06F10843E0600CE020693A
:1015800005EB4507072606FA07F1884305EB4506F4
:1015900003FA06F108432061072A0FDA606B561E32
:1015A00006EB86071F2606FA07F18843561E06EB50
:1015B000860605FA06F10843606322E00D2A0FDA79
:1015C000206BD61F06EB86071F2606FA07F1884315
:1015D000D61F06EB860605FA06F10843206310E0E5
:1015E000E06AA2F10D0606EB86071F2606FA07F150
:1015F0008843A2F10D0606EB860605FA06F10843BC
:10160000E062F0BD816841F008018160704721B15E
:10161000826842F4A002826003E0826822F4A002A1
:1016200082607047816841F004018160704700006A
:1016300010B543A000F0A4FF4FF4967001F030F90C
:1016400040A14148FEF7E1FE04463F4800F0A2F801
:101650000EE03D4800F09EF839A000F091FF4FF4F5
:10166000967001F01DF937A13748FEF7CEFE04460B
:10167000002CEED035A000F083FF4FF4967001F0FF
:101680000FF935A000F07CFF4FF4967001F008F9D7
:1016900033A12D48FEF7B9FE04462B4800F07AF836
:1016A0000EE0294800F076F82BA000F069FF4FF417
:1016B000967001F0F5F82AA12348FEF7A6FE04462D
:1016C000002CEED027A000F05BFF4FF4967001F0E5
:1016D000E7F81CA11C48FEF798FE04461A4800F0E3
:1016E00059F823A000F04CFF4FF4967001F0D8F8A1
:1016F00022A11548FEF789FE0446134800F04AF877
:101700000EE0114800F046F819A000F039FF4FF440
:10171000967001F0C5F819A10B48FEF776FE044655
:10172000002CEED012A000F02BFF4FF4967001F0C9
:10173000B7F815A10448FEF768FE0446012010BD65
:10174000415400004F4B0000D801002041542B436E
:1017500046554E3D3100000041542B43494D490050
:101760003436300041542B43474154543D3100003E
:1017700041542B43474154543F0000002B43474101
:1017800054543A20310000002B43455351000000CF
:1017900000BFFEE701460BE000BF0B4A128802F0D3
:1017A0004002002AF9D00A78074B1B1D1A80491CF9
:1017B0000A78002AF0D100BF02E000238354521CB3
:1017C000C82AFADB704700000038014010B5002439
:1017D0001548006820F47040134908600846006806
:1017E00040F40040086004E0601CC4B2012001F035
:1017F0007DF80E48006808B1C82CF5DBC82C01DB69
:10180000012010BD002404E0601CC4B2012001F0DE
:101810006DF80648006808B9F02CF5DBF02C01DB08
:101820000120EEE70020ECE7040801402C012142F2
:101830002DE9F84F00F0CCF800F0A8F8FFF7C6FF4C
:10184000CC2000F0D1F8BE2000F0CEF800F08CF8EB
:10185000834600F089F80446072C08DDE043C4B253
:101860006FEA0B0000F0FF0B4FF0000A01E04FF0B1
:10187000010AA1464FEA09200FFA80F909EB0B0093
:101880000FFA80F9484601F05FFF009001F008FF71
:1018900007460022084B01F0E5FC054601F060FC1C
:1018A0000FFA80F9BAF1000F02D04846BDE8F88F70
:1018B000C9F1000000B2F9E70000E43F08B50121DA
:1018C000080200F013FC4FF40060ADF80000102097
:1018D0008DF8030003208DF802006946064800F0E9
:1018E000BEF84FF40061044800F044F900F04EF8EF
:1018F000FFF76CFF08BD00000020014010B517483D
:10190000006820F47040154908600846006840F4FB
:1019100040500860002012490860022000F0E6FFF5
:1019200001201049C1F8AC010C48006820F4704057
:101930000A4908600846006840F4004008600C202E
:1019400000F0D4FF06488038006808B1012400E0A8
:101950000024322000F0CAFF204610BD04080140D8
:10196000AC0121420000214270B50026012508E0AB
:10197000FFF7C4FF0446E00140EA6600C6B2681CF7
:10198000C5B2082DF4DD304670BD000010B50D481D
:10199000006820F470400B4908600846006840F475
:1019A0004050086000200849086040F2EE2000F036
:1019B0009DFF01200549C1F8AC010F2000F096FF02
:1019C00010BD000004080140AC012142000021428A
:1019D00010B5FFF7DBFFFFF7F9FECC2000F004F8AD
:1019E000442000F001F810BD70B5044618480068A6
:1019F00020F47040164908600846006840F44050E2
:101A00000860012520E004F0010664106EB100209A
:101A100010490860022000F069FF01200E49C1F85A
:101A2000AC013C2000F062FF0CE000200949086096
:101A30003C2000F05BFF01200749C1F8AC01022007
:101A400000F054FF681CC5B2082DDCDD70BD00003D
:101A500004080140AC0121420000214270472DE9F9
:101A6000F041024600250026002000230024002724
:101A700091F803C00CF00F0591F803C00CF0100CA6
:101A8000BCF1000F03D091F802C04CEA050591F8B3
:101A900000C0BCF1000F31D0146800202BE04FF0E3
:101AA000010C0CFA00F3B1F800C00CEA03069E42E8
:101AB00020D183004FF00F0C0CFA03F7BC4305FA5A
:101AC00003FC4CEA040491F803C0BCF1280F06D1D2
:101AD0004FF0010C0CFA00FCC2F814C00AE091F8B7
:101AE00003C0BCF1480F05D14FF0010C0CFA00FC0B
:101AF000C2F810C0401C0828D1D31460B1F800C04F
:101B0000BCF1FF0F34DD546800202EE000F1080C1A
:101B10004FF0010808FA0CF3B1F800C00CEA030614
:101B20009E4221D183004FF00F0C0CFA03F7BC4307
:101B300005FA03FC4CEA040491F803C0BCF1280F39
:101B400005D100F1080C08FA0CF8C2F8148091F8DD
:101B500003C0BCF1480F07D100F1080C4FF0010899
:101B600008FA0CF8C2F81080401C0828CED3546044
:101B7000BDE8F081016170472DE9F84F072301228C
:101B800002212948FFF7E2FC01212748FFF73FFD2A
:101B900000BF02212448FFF79DFC0028F9D022480D
:101BA000FFF794FC0090009801F0E6FD804601F0FC
:101BB00077FD06464FF066321C4B01F053FB04469E
:101BC00001F090F88346584601F06AFD0646184A2F
:101BD000184B01F06DF9044601F084F8834658462D
:101BE00001F05EFD8046144A144B01F03BFB0646B3
:101BF000134A144B01F0A8F8044601F073F882462A
:101C00001149504601F04BFE01D8DFF83CA00021FD
:101C1000504601F0C5FD01D84FF0000A504601F0D2
:101C200077FDBDE8F88F00000024014066664A3F5A
:101C30001F85EB51B81EE53F3D0AD7A3700D8BC041
:101C40009A99999999B6A94000007A442DE9F84FDC
:101C50000723012211462A48FFF778FC0121284872
:101C6000FFF7D5FC00BF02212548FFF733FC002811
:101C7000F9D02348FFF72AFC0090009801F07CFD82
:101C8000824601F00DFD07464FF066321D4B01F014
:101C9000E9FA054601F026F80446204601F000FD69
:101CA00005462A460B4618A0FEF7A2FA204601F088
:101CB000F7FC0546174A184B01F0D4FA0746174AB5
:101CC000174B01F041F8824601F00CF88146484676
:101CD00001F0E6FC05460022134601F087FA01D820
:101CE0004FF00009484601F0DBFC054600220D4B91
:101CF00001F0B6FB01D8DFF830904846BDE8F88F18
:101D00000024014066664A3F5643433A25660D0A61
:101D10000000000087A757CA320417C08195438B83
:101D20006CA7304000002C400000604100BFFEE77F
:101D300010B5B4B00446002C15DB052C13DC0BA049
:101D400013A115A32246CDE9001016A102A8FEF7A3
:101D50005BFA02A800F014FC4FF4967000F0A0FDAE
:101D6000012034B010BD0020FBE700003064633177
:101D70003033336133313133326261636230643224
:101D8000633833346662663962633662000000008D
:101D9000746573745F31000061313959364F5141B8
:101DA000666C560041542B514D544346473D2261C9
:101DB0006C6961757468222C25642C222573222C91
:101DC000222573222C2225732200000070B5B2B0A8
:101DD00004460D46002C27DB052C25DC002D23D0E6
:101DE0002B46224611A16846FEF70EFA684600F01F
:101DF000C7FB4FF4967000F053FD11A11448FEF795
:101E000004FB064604E00EA11148FEF7FEFA064662
:101E1000002EF8D00E48FFF7BDFC4FF4967000F08E
:101E20003FFD012032B070BD0020FBE741542B5133
:101E30004D54434F4E4E3D25642C22257322000005
:101E40002B514D54434F4E4E3A20302C302C300005
:101E5000D801002030B5B3B00446002C24DB052C9B
:101E600022DC224611A101A8FEF7CEF901A800F05C
:101E700087FB4FF4967000F013FD16A11948FEF78A
:101E8000C4FA054604E013A11648FEF7BEFA05465B
:101E9000002DF8D01348FFF77DFC4FF4967000F04A
:101EA000FFFC012033B030BD0020FBE741542B5133
:101EB0004D544F50454E3D25642C223133392E313F
:101EC00039362E3133352E313335222C31383833F3
:101ED000000000002B514D544F50454E3A20302CFD
:101EE00030000000D8010020F0B5E5B004460D46F2
:101EF0001746002C24DB052C22DC002D20D02B469D
:101F0000224610A101A80097FEF77EF901A800F073
:101F100037FB4FF4967000F0C3FC12A11548FEF792
:101F200074FA064604E00FA11248FEF76EFA064660
:101F3000002EF8D00F48FFF72DFC012065B0F0BD52
:101F40000020FBE741542B514D545055423D256430
:101F50002C302C302C302C222573222C222573225D
:101F6000000000002B514D545055423A20302C3087
:101F70002C300000D801002000BFFEE770470000B1
:101F800070B5002100230F22C47804B3154C2468D7
:101F900004F4E064C4F5E064210AC1F10403CA401A
:101FA000447804FA03F184781440214309010E4C6B
:101FB0000678A155047804F01F050124AC4005788B
:101FC0006D11AD0005F1E025C5F8004109E0047888
:101FD00004F01F050124AC40044D0678761145F845
:101FE000264070BD0CED00E000E400E080E100E080
:101FF00002490143024A1160704700000000FA05DF
:102000000CED00E000B587B001214FF4017000F045
:102010006DF84FF4004000F03DF80220ADF80400E8
:1020200000208DF8070001A91748FFF718FD174891
:10203000FFF714FA002002908DF80C008DF80D00C7
:102040004FF4602004900020059001208DF81800C6
:1020500002A90E48FFF752FA01210C48FFF7F2F9E6
:102060000A48FFF7CFFA00BF0848FFF73CFA0028FC
:10207000FAD10648FFF7D6FA00BF0448FFF71CFA6A
:102080000028FAD107B000BD00080140002401403B
:102090007047000001460020034A506820F4404089
:1020A00008435060704700000010024029B1064A02
:1020B000D2690243044BDA6104E0034AD2698243E5
:1020C000014BDA61704700000010024029B1064A56
:1020D00012690243044B1A6104E0034A1269824305
:1020E000014B1A61704700000010024029B1064AF6
:1020F00092690243044B9A6104E0034A9269824365
:10210000014B9A61704700000010024029B1064A55
:10211000D2680243044BDA6004E0034AD268824387
:10212000014BDA60704700000010024030B500211A
:102130000022002400232D4D6D6805F00C0121B113
:10214000042905D0082923D105E0294D056022E0A6
:10215000274D05601FE0254D6D6805F47012234D75
:102160006D6805F48034022505EB92421CB9214DBF
:10217000554305600BE01D4D6D6805F400351DB13C
:102180001C4D5543056002E0194D5543056002E0C2
:10219000174D056000BF00BF144D6D6805F0F001DC
:1021A0000909154D6B5C0568DD4045600F4D6D6894
:1021B00005F4E061090A104D6B5C4568DD408560FF
:1021C0000A4D6D6805F46051C90A0B4D6B5C45689A
:1021D000DD40C560054D6D6805F44041890B074D34
:1021E0006B5CC568B5FBF3F5056130BD00100240BE
:1021F00000127A0000093D0020000020300000207D
:10220000704710B500F002F810BD00000CB50020BA
:10221000019000903348006840F4803031490860F4
:1022200000BF3048006800F4003000900198401C66
:102230000190009818B90198B0F5A06FF1D1294824
:10224000006800F4003010B10120009001E000208F
:1022500000900098012843D12348006840F0100006
:10226000214908600846006820F00300086008461D
:10227000006840F0020008601A4840681949486048
:102280000846406848600846406840F480604860FE
:102290000846406820F47C1048600846406840F4D6
:1022A000E81048600846006840F08070086000BF91
:1022B0000C48006800F000700028F9D00948406818
:1022C00020F00300074948600846406840F00200DB
:1022D000486000BF0348406800F00C000828F9D1AE
:1022E0000CBD00000010024000200240042808D16C
:1022F0004FF0E021096941F004014FF0E022116143
:1023000007E04FF0E021096921F004014FF0E022DD
:10231000116170477047000010B51348006840F025
:1023200001001149086008464068104908400E49FC
:102330004860084600680E4908400B490860084696
:10234000006820F4802008600846406820F4FE0001
:1023500048604FF41F008860FFF753FF4FF00060A4
:102360000449086010BD0000001002400000FFF8A2
:10237000FFFFF6FE08ED00E010B50121044800F073
:102380000CF818B10121024800F004F810BD00005B
:1023900000040040CA430282704730B50246002064
:1023A00000230024158A05EA0103958905EA010442
:1023B00013B10CB1012000E0002030BD00B587B0A2
:1023C00001214FF40170FFF791FE4FF40040FFF739
:1023D00061FE0420ADF8040000208DF8070001A97B
:1023E0001748FFF73CFB1748FFF738F8002002902A
:1023F0008DF80C008DF80D004FF460200490002043
:10240000059001208DF8180002A90E48FFF776F814
:1024100001210C48FFF716F80A48FFF7F3F800BF50
:102420000848FFF760F80028FAD10648FFF7FAF8E5
:1024300000BF0448FFF740F80028FAD107B000BDFC
:10244000000801400024014010B540F225511D480C
:1024500000F022F910B31B4800F0DAF9C4B21A48B0
:10246000008800F40040C8B91748008800F4804094
:1024700060B10A2C03D000201349088020E01248E4
:10248000008840F400401049088019E00D2C06D166
:102490000D48008840F480400B49088010E00A484D
:1024A0000088C0F30D0009490C5407480088401CFF
:1024B0000549088008460088C72801DD00200880FB
:1024C00010BD0000003801404000002048000020FE
:1024D00010B540F22551114800F0DEF858B10F4810
:1024E00000F096F9C4B20E4801880088401C0C4ADE
:1024F00010800C48445440F22441084800F0CCF8C5
:1025000001280AD105490988C8B20449091D09886A
:10251000C8B20021024A118000BF10BD0044004033
:10252000420000201001002010B540F22551114852
:1025300000F0B2F858B10F4800F06AF9C4B20E4882
:1025400001880088401C0C4A10800C48445440F21A
:102550002441084800F0A0F801280AD1054909885B
:10256000C8B20449091D0988C8B20021024A118075
:1025700000BF10BD0048004044000020D8010020EA
:1025800070B5044600252046FDF751FF86B20DE0E8
:1025900000BF1348008800F040000028F9D02078E0
:1025A0000F49091D0880641C681C85B2B542EFDB29
:1025B00000BF0B48008800F040000028F9D00D2033
:1025C0000749091D088000BF0548008800F0400049
:1025D0000028F9D00A200249091D088070BD0000BA
:1025E0000048004021B1828942F40052828104E017
:1025F00082894DF6FF731A408281704710B50446F8
:102600002048844209D101218803FFF77FFD002182
:102610004FF48040FFF77AFD32E01B48844209D135
:1026200001214804FFF752FD00214FF40030FFF76D
:102630004DFD25E01548844209D101218804FFF7AA
:1026400045FD00214FF48020FFF740FD18E01048C1
:10265000844209D10121C804FFF738FD00214FF45D
:102660000020FFF733FD0BE00A48844208D1012126
:102670000805FFF72BFD00214FF48010FFF726FD22
:1026800010BD0000003801400044004000480040F8
:10269000004C00400050004070B50246002400236A
:1026A0000025002040F66A16B14200D100BFC1F3F8
:1026B000421501F01F03012606FA03F3012D02D192
:1026C0009689334006E0022D02D1168A334001E09C
:1026D000968A33400C12012606FA04F41688344018
:1026E00013B10CB1012000E0002070BDF0B503462D
:1026F000002400260025002040F66A17B94200D1C8
:1027000000BF1846C1F3421401F01F06012707FA63
:1027100006F5012C01D10C3004E0022C01D110305F
:1027200000E014301AB107682F43076002E0076821
:10273000AF430760F0BD00002DE9F04786B00546C5
:102740000E460024A24600BFA1460027B08900B172
:1027500000BF2F462C8A4CF6FF700440F0880443DB
:102760002C82AC894EF6F3100440B08831890843BE
:10277000718908430443AC81AC8A4FF6FF400440A2
:10278000B0890443AC8201A8FFF7D0FC1F48874200
:1027900002D1DDF810A001E0DDF80CA0A88900F45A
:1027A000004040B10AEBCA0000EB0A103168490052
:1027B000B0FBF1F807E00AEBCA0000EB0A10316841
:1027C0008900B0FBF1F86420B8FBF0F004012009A7
:1027D000642101FB1089A88900F4004040B1322037
:1027E00000EBC900B0FBF1F000F00700044308E083
:1027F000322000EB09106421B0FBF1F000F00F0073
:1028000004432C8106B0BDE8F08700000038014089
:1028100001468888C0F30800704700BFFEE7490002
:1028200050EAC12018BF04204A0D18BF40F0010033
:1028300040F2FF72B2EB515F08BF40F00200012886
:1028400008BF0520704730380A2801D201207047A0
:1028500000207047014600BF7047000010B56FF0C0
:102860000400FFF743FD0A4800680A49B0FBF1F095
:10287000094908700846007800EB4001C1EBC01020
:102880004FF6FF7101EAC0000449088010BD000046
:102890000C00002000127A003400002036000020D6
:1028A0000146114A12884A434FF0E0235A61002240
:1028B0009A611A46126942F001021A6100BF4FF094
:1028C000E022106900F001021AB100F48032002AFF
:1028D000F5D04FF0E022126922F001024FF0E02320
:1028E0001A6100229A617047360000200146114AA1
:1028F00012784A434FF0E0235A6100229A611A4647
:10290000126942F001021A6100BF4FF0E022106923
:1029100000F001021AB100F48032002AF5D04FF025
:10292000E022126922F001024FF0E0231A61002236
:102930009A6170473400002000BF054A128802F0F7
:102940004002002AF9D0C2B2014B1B1D1A80704709
:1029500000380140B6B000BFFFF780FF4FF4A06021
:10296000FFF746FB4FF4E13000F056F94FF4E13049
:1029700000F0F6F844A0FDF73BFCFFF743FBFFF740
:102980001DFD08E0C820FFF78BFF42A0FDF730FCDB
:10299000C820FFF785FFFEF791FF0028F2D1FEF770
:1029A00047FE10B13FA0FDF723FC0020FFF7C0F960
:1029B00010B140A0FDF71CFC02E042A0FDF718FC9E
:1029C0000020FFF747FA0028F7D002E042A0FDF709
:1029D0000FFC46A10020FFF7F9F90028F6D052E0DD
:1029E000FEF726FF804600F0EAFB06460022434B36
:1029F00000F05EFA044600F075F9414908600846A7
:102A0000006800F04DFE044622460B463DA0FDF74F
:102A1000EFFBFFF71BF93D4908600846006800F02E
:102A20003FFE044622460B4639A0FDF7E1FBFFF7C7
:102A3000A3F8394908600846016838A0FDF7D8FBBB
:102A40004FF47A70FFF72CFF2D48006800F028FE45
:102A500004460D462D48006800F022FE06462E482A
:102A6000CDE90245006832460B462F49009004A884
:102A7000FDF7CAFB04AA2DA10020FFF735FA4FF499
:102A80007A70FFF70DFFABE7206F6B312121210D2D
:102A90000A0000006473313862323020696E697454
:102AA0000D0A0000696E6974206973206F6B212123
:102AB000210D0A00636667206973206F6B21212155
:102AC0000D0A00006F70656E206973206E6F7420B0
:102AD0006F6B2121210D0A00636F6E6E20697320D8
:102AE0006E6F74206F6B2121210D0A003436303057
:102AF000343333333130303930383900000024403A
:102B00000000002025660D0A0000000008000020DB
:102B100050483A25660D0A00040000204E54553AEC
:102B200025640D0A00000000983900082F7379739E
:102B30002F61313959364F5141666C562F74657388
:102B4000745F312F7468696E672F6576656E742FB8
:102B500070726F70657274792F706F7374000000FB
:102B600010B586B0044601210820FFF7BFFA012105
:102B70008804FFF79BFA2648FFF740FD4FF480607A
:102B8000ADF8140003208DF8160018208DF81700FA
:102B900005A92048FEF763FF4FF40060ADF814006C
:102BA00004208DF8170005A91A48FEF758FF2720C2
:102BB0008DF8000000208DF8010001208DF8020042
:102BC0008DF803006846FFF7DBF901940020ADF8AB
:102BD0000800ADF80A00ADF80C00ADF810000C20AC
:102BE000ADF80E0001A90A48FFF7A6FD012240F248
:102BF00025510748FFF77AFD012240F2244104489D
:102C0000FFF774FD01210248FFF7ECFC06B010BD90
:102C100000480040000C014010B586B00446012178
:102C200044F20400FFF762FA4FF40070ADF81400AC
:102C300003208DF8160018208DF8170005A91C48F0
:102C4000FEF70DFF4FF48060ADF8140004208DF8FE
:102C5000170005A91648FEF702FF25208DF8000091
:102C600003208DF801008DF8020001208DF803008B
:102C70006846FFF785F901940020ADF80800ADF82B
:102C80000A00ADF80C00ADF810000C20ADF80E00F5
:102C900001A90848FFF750FD012240F225510548DF
:102CA000FFF724FD01210348FFF79CFC06B010BD8F
:102CB000000801400038014010B500290AD008780A
:102CC000002807D005487844FDF7B4FF002801D05C
:102CD000002010BD0248784410BD00003E0D0000E9
:102CE000360D000021F00042A2F16052B2F5801FC3
:102CF00001F0004328BFD2F17F6C0BD95FEA001CC2
:102D000043EAC20242EB507018BF704728BF20F060
:102D100001007047B2F5801FBCBF184670474FEAEC
:102D2000410C1CF5001F02D2084600F0B3BD70B57F
:102D300000F042FB00000089FFF7F6BF4FF00040B3
:102D4000A0F580007047000010B591EA030F48BF5E
:102D500083F0004300F1C283841A71EB030C05D2A7
:102D6000121943EB0C03001B61EB0C01DFF824E1AB
:102D70004FEA1154A4EB135C1EEA430F18BF9EEAFE
:102D8000445F73D023EA0E03DCF1200E21EA0451E4
:102D900043F4801332D322FA0CFE10EB0E0023FA18
:102DA0000CFE41EB0E01CCF1200E03FA0EFE10EBEF
:102DB0000E0051F10001B1F5801FCCF1200E32D28E
:102DC00001EB045112FA0EF2BDE8104058BF7047F3
:102DD000401C38BF5FEA420218BF7047002814BF8A
:102DE00020F0010041F100014FEA410313F5001FFB
:102DF00038BF7047A1F1C04100F02CBB012A43EB62
:102E00000302ACF1200CDCF11F0E32BF4FF0000EBC
:102E100023FA0CF310EB030041EB0451B4EB115F08
:102E2000D0D0A1EB045101F5801149085FEA3000D0
:102E300001EB04510ED350F1000038BF12FA0EFE20
:102E400008D1BDE81040C9E7401C38BF5FEA420224
:102E5000CAD1C3E7BDE810404FEA410313F5001F94
:102E600038BF7047A1F1C04100F0F4BA9EEA445F58
:102E700008D011EA5E0FBDE8104004BF01F0004128
:102E800000207047BDE8104070B500F095FA00BF13
:102E900064FBBE3E0000E0FF491058BFC1F1404155
:102EA0005B1058BFC3F140438B42EFF30080704783
:102EB0002DE9C04130B4DFF8A0C23CEA111418BFBC
:102EC0003CEA131400F0EC8081EA03051CEA1114BB
:102ED00044EAD57418BF1CEA131500F0C780A4EBB0
:102EE00005044FF0004545EAC12145EAC32341EA04
:102EF000505143EA525304F17F74994204F500346F
:102F00004FEAC0204FEAC22208BF904200F09C80E6
:102F10004FEA13650FF24016765D4FEA134506FB44
:102F200005F7C7F1807706FB07F74FEAD737A7FB0E
:102F300003687642C8F58038A7FB06CE38BFA8F1F3
:102F4000010807FB08E64FF0000EA6FB028CE6FB2B
:102F500003CEDCF1000CCEF1004E38BFAEF1010E15
:102F6000A6FB0C584FF000074FF00005E6FB0E875C
:102F7000A1FB08C6A0FB07CE16EB0E0645F1000527
:102F8000E1FB076515F1E04E7EBFA4F580345FEAF2
:102F900046066D4116F1800745F100054FEA1727F7
:102FA0004FEA066647EA0567A6F1DE46B6F1805F9E
:102FB0004FEA15251FD9384624F0010C05EBC471E2
:102FC000BCF1FE6F01EB0C1102D8F0BCBDE8008132
:102FD00024425CBF01F5801E9EEAC47F02D4F0BC8F
:102FE000BDE80081244238D4F0BCA1F1C041BDE865
:102FF000004100F02FBA4FEAD22242EA43524FEA90
:10300000D323A7FB02864FEAD02040EA415007FBBA
:1030100003661EEA0E0F4FEAD12105FB026658BF78
:10302000A6EB0056B6EB00564FEA520E4EEAC37EB0
:1030300018EB0E0E56EB530EBDD518EB02085E4191
:103040007F1C55F10005B6E74FF480154FF00007DF
:103050004FF000064FF00008ADE7F0BC4FF0000065
:1030600001F1C04101F00041BDE8008111EA0C1FEF
:103070000CEA131500D00CE013EA0C1F00F02580B9
:103080004FF00000F0BC81EA030101F00041BDE80F
:103090000081F0BCBDE8004181EA030100F0DAB92B
:1030A000F0BCBDE8004170B500F086F9097EFC3E39
:1030B00000F007B881EA03014FF0000001F0004181
:1030C000704781EA030100F0C5B9F0BCBDE80041DA
:1030D0004FF0000021497047FFFDFBF9F7F5F4F2CE
:1030E000F0EEEDEBE9E8E6E4E3E1E0DEDDDBDAD8A3
:1030F000D7D5D4D3D1D0CFCDCCCBCAC8C7C6C5C401
:10310000C2C1C0BFBEBDBCBBBAB9B8B7B6B5B4B317
:10311000B2B1B0AFAEADACABAAA9A8A8A7A6A5A402
:10312000A3A3A2A1A09F9F9E9D9C9C9B9A999998C6
:103130009797969595949393929191908F8F8E8E69
:103140008D8C8C8B8B8A89898888878786858584F6
:1031500084838382828181800000FF070000F87FE2
:103160004FEA41034FEA5353A3F58063D3F11E03A3
:10317000C8BFD3F1210C0CDD4FF0004242EAC1225E
:1031800042EA505232FA03FC8CEAE17CACEBE1708B
:103190007047102BC4BF0020704703F5787CBCF14A
:1031A000FF3F04D06FF0004282EA2100704770B503
:1031B00000F002F94992248000207047F2E710F0F5
:1031C000004248BF4042B0FA80F310FA03F10AD03F
:1031D000C3F11D0303F580634FEA415002EB035234
:1031E00002EBD12170474FF00000704751EA030C09
:1031F00017D41CF5801F58BFBCF5801F00F1068056
:10320000994218BF704708BF9042704707D711F521
:10321000801F58BF13F5801F19D499427047894207
:1032200070471CF5801F08D5BCF5801FF7D58B4271
:1032300018BF704708BF824270474FF4001C1CEB58
:10324000410F38BF1CEB430F01D28B42704770B562
:1032500000F0B2F8922449004FF000514FF0805333
:10326000FFF71ABEDFF848C170B51CEA111E1EBF79
:103270001CEA13159EEA0C0F95EA0C0F00F06F8004
:1032800081EA030423EA4C134EEAD47E21EA4C116E
:1032900041F4801143F48013AE44A1FB024CA0FB27
:1032A0000365AEF17F7E361955EB0C05A1FB034C8F
:1032B0004CF10003A0FB021C16EB0C06654153F118
:1032C0000003094218BF46F0010613F4007F0BD13A
:1032D0004FEA03314FEA0530340341EA155140EA21
:1032E00016506FF003020AE04FEAC3214FEAC520EF
:1032F000F40241EA555140EA56506FF0020202EBE7
:103300002E4201EB025585EACE710AD05FEA440CE9
:1033100018BF24F0004450F1000041F1000120EA00
:10332000D47040F2FE7C624500D270BDA84214BF4A
:103330004FF080444FF04044002E08BF0024BEF1FF
:10334000806FA8BFA1F1C041BDE8704080F28280CB
:103350004FF0000001F1C04101F0004170479EEACA
:103360000C0F0CEA131518BF95EA0C0F06D04FF09E
:10337000000081EA030E0EF0004170BD00F01CF861
:103380008900013E00F007B800F009B84FEA430C8D
:103390005FEA5C5C08D081EA030100F05BB84FEAA9
:1033A000410C5FEA5C5CF6D14FF0000001497047C8
:1033B0000000FF070000F87F0EF1020E2EF0030E52
:1033C0005EF8046B364205D4012A43EB030515F57C
:1033D000001F12D8012841EB010C1CF5001F0CD86E
:1033E0000ED14FEAD17C15F5001F0CEB4C0C0CF103
:1033F000020C08BF4CEBD37C04E04FF0080C01E05A
:103400004FEAD37C0CEB4C0526FA05F606F00706CE
:10341000B6F1040C06D20EEB860CBDE870404CF001
:10342000010C6047DFE80CF0090B02024FF000418D
:103430004FF00000A1F5002170BD1946104601288B
:1034400051EB010418BFD4F5001484BF002001F033
:10345000004170BD0808A0F500114FEA3101704726
:1034600053EA010C17D41CF5801F58BFBCF5801F10
:1034700000F106808B4218BF704708BF8242704738
:1034800007D713F5801F58BF11F5801F19D48B4241
:1034900070479B4270471CF5801F08D5BCF5801F04
:1034A000F7D5994218BF704708BF904270474FF454
:1034B000001C1CEB430F38BF1CEB410F01D299429B
:1034C00070470FB40CBC03BCFFF7C1BE10B591EA46
:1034D000030F48BF83F000433FF53EAC841A71EB05
:1034E000030C07D212198CF0004C43EB0C03001BA9
:1034F00061EB0C01DFF8A4E14FEA1154A4EB135C7B
:103500001EEA430F18BF9EEA445F00F0B08023EA32
:103510006E03524221EA0451C3EB6E0338BF5B1EB7
:10352000DCF1200E25D322FA0CFE10EB0E0043FA3C
:103530000CFE41EB0E01CCF1200E03FA0EFE10EB57
:103540000E0051F10001CCF1200E29D412FA0EF236
:1035500001EB0451BDE8104058BF7047401C1CBF30
:10356000B2F1004F704700280CBF491C20F0010049
:10357000704712EB020E43EB030218BF4FF0010E2F
:103580004EEA4202ACF1200CDCF11E0E54D943FA93
:103590000CFE10EB0E0051F1FF31CCF11E0ED5D513
:1035A0000EF1010E12FA0EFE404141EB010101EB5A
:1035B000445C5FEA5C5C10D910EBDE7001EB0451F7
:1035C00038BFBEF1004FBDE8104018BF704700285B
:1035D0000CBF491C20F00100704730D24FEAD42CB8
:1035E00011F5001124F400641BD0B1FA81F20B3AFA
:1035F000A41AA41ED2F12003914030FA03F3194318
:10360000904001EBCC71002C01EB0451BDE810405F
:10361000A8BF704701F1C0414FF0000001F0004128
:103620007047B0FA80F310FA03F100D110BDE41A2C
:10363000173C4805C90AE4E701EB045110BD4910E5
:1036400001EB0451BDE810404FEA300002E04FF0BA
:10365000000170474A0008BF0042F8D0B2F5001FD1
:1036600028BF704701F000414FF0000070479EEA0C
:10367000445F07D011EA5E0FBDE8104004BF00218F
:1036800000207047BDE8104070B5FFF795FE00BF01
:1036900040DFF63E83F00041104670470000E0FF37
:1036A00043004FEAD30C4FEA3C0C43401FBF400796
:1036B0000CF1605113F0FE4F70471CF0006F03D106
:1036C00000200CF0004170470CF0004343EA5070BA
:1036D00010B540EACC0000F097F800BF000000925F
:1036E0004FEA0001FFF7B6BE4FF000414FF0000077
:1036F000A1F500217047401058BFC0F1404049106B
:1037000058BFC1F140418142EFF300807047000093
:1037100041000B0ED3F19E0208D950F400034FEA8A
:10372000032323FA02F048BF4042704710B500F06F
:103730006BF800BF49922480002070476FF0004270
:1037400082EA20007047000010F0004148BF40426C
:10375000B0FA80F310FA03F2C3F19D030BD051EAE3
:10376000C35101EB1220530638BF704700F101002E
:1037700008BF20F001007047B0FA80F310FA03F29E
:10378000C3F19D030AD0D90501EB1220530638BFBF
:10379000704700F1010008BF20F0010070470000F1
:1037A00050EA010C00F113801CF5000F58BFBCF566
:1037B000000F01D48842704707D710F5000F58BF9B
:1037C00011F5000F15D488427047894270471CF5E7
:1037D000000F04D5BCF5000FF7D5814270474FF0BC
:1037E000807C1CEB400F38BF1CEB410F01D28142A3
:1037F000704710B500F008F8922449004FF00050CF
:103800004FF08051FFF777BF0EF1020E2EF0030E3E
:103810005EF8044B244204D44FEA4102B2F17F4FD8
:1038200011D84FEA4003B3F17F4F0CD80ED14FEAC5
:10383000D07CB2F17F4F0CEB4C0C0CF1020C08BFAA
:103840004CEBD17C04E04FF0080C01E04FEAD17C56
:103850000CEB4C0324FA03F404F00704B4F1040C59
:1038600006D20EEB840CBDE810404CF0010C604712
:10387000DFE80CF0070802024FF00040A0F58000DE
:1038800010BD0846420018BFD2F1807288BF00F018
:10389000004010BDFF2141EAD050C005704751EAF9
:1038A000000C00F113801CF5000F58BFBCF5000F91
:1038B00001D48142704707D711F5000F58BF10F5AA
:1038C000000F15D481427047894270471CF5000FE4
:1038D00004D5BCF5000FF7D5884270474FF0807CC7
:1038E0001CEB410F38BF1CEB400F01D288427047E0
:1038F00080EA010081EA000180EA0100FFF779BF58
:10390000FCF7EABE02400000000000A0000000003A
:1039100005400000000000C8000000000C4000004E
:103920000000409C00000000194000000020BCBEC8
:103930000000000034400000BFC91B8E00000004DE
:10394000B5400000504BCFD06607E2CF0100000029
:103950006C4100003E8251AADFEEA7340100000056
:10396000D9420000DCB5A0E23A301F97FFFFFFFF0D
:10397000B4450000FD25A0C8E9A3C14FFFFFFFFF2C
:10398000FF3F00000000008000000000FF3F00003B
:1039900000000080000000007B226964223A22318E
:1039A000222C2276657273696F6E223A22312E3094
:1039B000222C22706172616D73223A7B2250482260
:1039C0003A252E31662C22544453223A25642C2267
:1039D00054656D7065726174757265223A252E3179
:1039E000667D7D00203A00080000002048000000AD
:1039F00028010008683A000848000020B8080000C4
:103A0000440100081C00000043000000F8FFFFFF15
:103A10000C0000000E0000000F0000002E0000004F
:103A200000000000000000000000E04000A24A0486
:103A3000000000000000000001020304060708095E
:103A40000000000001020304010203040607080944
:103A50000204060800000000000000000000000052
:083A600000000000000000005E
:04000005080000ED02
:00000001FF
